:100000002AC04EC04DC04CC0D8C54AC049C048C027
:1000100047C046C045C08BC443C042C041C086C52E
:10002000D0C400003A00370000003B003800020254
:1000300002010101010101010102010204804020CD
:10004000100804020108000001020304000000007F
:1000500000000000630711241FBECFE5D2E0DEBF21
:10006000CDBF10E0A0E6B0E0E6E7F1E102C0059008
:100070000D92A039B107D9F721E0A0E9B0E001C0A5
:100080001D92A132B207E1F710E0CBE2D0E003C04D
:100090002197FE0161D8CA32D107D1F7A5D569C829
:1000A000AFCF86B32091E90090E0022E02C0959573
:1000B00087950A94E2F780FD11C082E893E10197E9
:1000C000F1F786B390E002C0959587952A95E2F7FF
:1000D0008170992721E082278170089580E008953A
:1000E000CF92DF92EF92FF928FB7F894C090E50025
:1000F000D090E600E090E700F090E8008FBFD1DFFD
:100100008111FDCF2FB7F8948091E5009091E60022
:10011000A091E700B091E8002FBFBC01CD016C19A0
:100120007D098E099F09FF90EF90DF90CF90089591
:1001300087FF08C0E82FEF77E83018F48AE08E1BBD
:1001400001C08FEF90E0FC01EA5BFF4F2491FC01BE
:10015000E65CFF4F3491FC01E25DFF4FE491EE233A
:1001600009F43AC0222309F1213031F480B78F77A6
:1001700080BF80B78F7B07C0223039F480B78F7D76
:1001800080BF80B78F7E80BF10C0233031F48FB521
:100190008F778FBD8FB58F7B07C0243031F48FB53B
:1001A0008F7D8FBD8FB58F7E8FBDF0E0EE0FFF1F6F
:1001B000E85DFF4FA591B491611108C09FB7F89415
:1001C0008C91309538233C939FBF08958FB7F89456
:1001D000EC913E2B3C938FBF0895CF93DF9387FF25
:1001E00008C0E82FEF77E83018F48AE08E1B01C0D2
:1001F0008FEF90E0FC01E65CFF4F2491FC01E25D93
:10020000FF4F8491882361F190E0880F991FFC01D2
:10021000EE5DFF4FC591D491FC01E85DFF4FA591C4
:10022000B491611109C09FB7F89488812095822309
:100230008883EC912E230BC0623061F49FB7F89451
:100240008881322F309583238883EC912E2B2C9339
:100250009FBF06C08FB7F894E8812E2B28838FBFED
:10026000DF91CF9108958F7387B9369A3699FECF73
:1002700084B125B190E0922B08953FB7F894809116
:10028000E1009091E200A091E300B091E40022B778
:1002900008B600FE05C02F3F19F00196A11DB11D43
:1002A0003FBFBA2FA92F982F8827820F911DA11D1C
:1002B000B11DBC01CD0143E0660F771F881F991F58
:1002C0004A95D1F708958091DE009091DF008F71FB
:1002D0009927892B51F48091DD00813039F4809188
:1002E000D700813019F41092B200DBCE8091B200B9
:1002F0008111FBCF81E00895CF93DF93EC018A81D8
:10030000B2DF9C019C838B838639910538F091E0A4
:10031000243F314008F090E0892F01C082E08D83B6
:10032000DF91CF9108950F931F93CF93DF93EC014B
:100330002BB301E010E0C801098002C0880F991FAB
:100340000A94E2F7822B8BBB8A818DDF9C018BB3F1
:10035000098002C0000F111F0A94E2F700950823DC
:100360000BBB2337310548F02A3A310540F02032E3
:1003700083E0380730F093E005C090E003C091E0DF
:1003800001C092E09D83923028F483E088833C830F
:100390002B8308C0888187FD02C08150888381E05B
:1003A0009881911180E0DF91CF911F910F91089575
:1003B000CF93FC01680F791F80E03CEB41E652ECE3
:1003C000ADE9B3E2C6E42CE8E617F707B9F091917E
:1003D000982790FF02C08EE501C080E091FD832741
:1003E00092FD842793FD852794FD8A2795FD8B2711
:1003F00096FD8C2797FFE8CF8227E6CFCF9108950F
:100400009091F000492F50E0209117018091180140
:100410002F5F821B8F7099F0809117018F5F8F7013
:10042000209118018217E1F3E82FF0E0E056FF4F2A
:10043000DA01AF50BF4F2C912083809317014532D2
:1004400051051CF49F5F9093F0000895CF93DF93C4
:100450008091B100882329F09091B00089130BC0DE
:1004600007C090911A0180911901891B8F7071F456
:10047000CFEFDFEF1DC0E92FF0E0E057FF4F8081A5
:10048000C82FD0E09F5F9093B00012C090911A01E6
:10049000809119019817E1F3E0911A01EF5FEF7075
:1004A000E0931A01F0E0E057FF4F8081C82FD0E0C1
:1004B00046E250E06AEA70E081EF90E053D6109295
:1004C000F000CE0199278C34910561F18CF48134D0
:1004D000910521F182349105A9F564E270E088E686
:1004E00090E066DF80938C0086E2E8E6F0E024C0CE
:1004F0008435910579F08A35910541F08D34910567
:1005000009F580918E008093F1001CC081E08093FA
:10051000200118C082E080938E0014C081E0809397
:10052000B20010C066E070E080E690E041DF8093AA
:10053000660088E0E0E6F0E0A1EFB0E001900D9207
:100540008A95E1F7DF91CF91089580938E00109204
:100550001A011092190110921801109217018AE0E5
:1005600080931F0110921E0110921D0110921C0118
:1005700010921B01DC9ADE9AD49AD69888EA8DB93B
:1005800080EF8EB986E292E090931C0180931B016C
:1005900080E092E090931E0180931D011092200153
:1005A00046E250E06AEA70E081EF90E0DBD510921D
:1005B000F00008959F92AF92BF92CF92DF92EF9298
:1005C000FF920F931F93CF93DF936091EB00062F61
:1005D00010E08091EC0090E001970817190714F4DF
:1005E0006F5F01C060E06093EB008091ED0070E010
:1005F00090E063D52091EA00820F911D28E7C22E7A
:1006000020E0D22EC8E6D0E09C0128563040790187
:100610009C845701AC0EBD1EC50139D5981619F042
:10062000692DC5013CD52196CC16DD0689F7609170
:10063000ED0070E084E790E0BBDE682F811101C01F
:1006400061E02091EB008091EE009091EF00820F2D
:10065000911D25D58091EE009091EF0060E0800F14
:10066000911FDF91CF911F910F91FF90EF90DF903D
:10067000CF90BF90AF909F9012C5CF93DF9300981B
:10068000379A86EC90E04FDE882301F18091740068
:1006900090917500A0917600B09177000196A11D10
:1006A000B11D8093740090937500A0937600B09371
:1006B00077008091CB00809370008091C900909169
:1006C000CA00909385008093840074DF80EC90E0F2
:1006D0002ADE882301F18091780090917900A09121
:1006E0007A00B0917B000196A11DB11D8093780026
:1006F00090937900A0937A00B0937B008091C5001D
:10070000809371008091C3009091C4009093870002
:10071000809386004FDF8AEB90E005DE882301F1AD
:1007200080917C0090917D00A0917E00B0917F002F
:100730000196A11DB11D80937C0090937D00A09334
:100740007E00B0937F008091BF0080937200809103
:10075000BD009091BE0090938900809388002ADFAD
:1007600084EB90E0E0DD882301F18091800090919E
:100770008100A0918200B09183000196A11DB11D5E
:100780008093800090938100A0938200B0938300B7
:100790008091B900809373008091B7009091B80068
:1007A00090938B0080938A0005DF8091DE0090910A
:1007B000DF008F719927892B39F48091DE009091A9
:1007C000DF00181619062CF03798009ADF91CF91A8
:1007D000089527B3C1E0D0E0CE010090B30002C07D
:1007E000880F991F0A94E2F7822B87BB28B3CE01AA
:1007F0000090B30002C0880F991F0A94E2F7822B81
:1008000088BB88ED90E078DD82ED90E075DD27B360
:10081000CE010090B30002C0880F991F0A94E2F73E
:10082000822B87BB98B39E010090B30002C0220FB9
:10083000331F0A94E2F7822F8095892388BB87B300
:100840000090B30002C0CC0FDD1F0A94E2F7C09500
:10085000C823C7BBB9CF4F925F926F927F928F929E
:100860009F92AF92BF92CF92DF92EF92FF920F933F
:100870001F93CF93DF93CDB7DEB760970FB6F89491
:10088000DEBF0FBECDBF3B01C090ED002091EA005E
:10089000E82EF12CD12CC701B6010FD4820F911D87
:1008A0008E010F5F1F4F2E0121E1420E511C580196
:1008B0004C01801A910AC4018A0D9B1DE8D3F501F1
:1008C00081935F01E415F505B1F7B601C80170DD4C
:1008D000D82E8091EE009091EF008E0D9F1DD7D302
:1008E000D81621F0813059F4D11009C080E1F80107
:1008F000D30101900D928A95E1F781E001C080E07B
:1009000060960FB6F894DEBF0FBECDBFDF91CF91DA
:100910001F910F91FF90EF90DF90CF90BF90AF901D
:100920009F908F907F906F905F904F9008951F924F
:100930000F920FB60F9211242F933F938F939F9393
:10094000AF93BF938091E5009091E600A091E700FE
:10095000B091E8003091E00026E0230F2D3730F011
:1009600029E8230F0396A11DB11D03C00296A11D06
:10097000B11D2093E0008093E5009093E600A093E2
:10098000E700B093E8008091E1009091E200A0912F
:10099000E300B091E4000196A11DB11D8093E10038
:1009A0009093E200A093E300B093E400BF91AF9175
:1009B0009F918F913F912F910F900FBE0F901F909D
:1009C00018951F920F920FB60F9211242F933F93F9
:1009D0004F935F936F937F938F939F93AF93BF9347
:1009E000CF93EF93FF938091CC00823009F44CC0F9
:1009F00028F4882359F0813051F186C0843009F4FD
:100A000049C010F1853009F467C07EC08FB18823DA
:100A100031F08FB1869590911F01891330C0789B7A
:100A20000DC0E0911D01F0911E01309729F08091D9
:100A3000170180931801099581E001C084E080933B
:100A4000CC001FB8D69A5EC08FB1811118C09091AA
:100A5000180180911701981791F0809118018F5F0C
:100A60008F7080931801E0911801F0E0E056FF4F7D
:100A700080818FB982E08093CC00D69A03C0D6984B
:100A800088EA8DB980E73FC083E08093CC00D69898
:100A90001FB838C085E08093CC00D69880E78EB927
:100AA000E0911B01F0911C01309771F1C091190187
:100AB00080911A01C81741F18EB18E7AE9F3759BC6
:100AC00023C090911A0180911901891B8F7090E0C9
:100AD0000995C0931A0118C084E08093CC009FB19F
:100AE000809119018F5F8F7020911A01821749F050
:100AF00080931901E0911901F0E0E057FF4F9083D6
:100B0000A0CFD6988EE78EB9FF91EF91CF91BF918C
:100B1000AF919F918F917F916F915F914F913F9195
:100B20002F910F900FBE0F901F9018951F920F924C
:100B30000FB60F9211242F933F934F935F936F93B0
:100B40007F938F939F93AF93BF93CF93EF93FF9335
:100B5000E0911B01F0911C01309781F0C0911901C7
:100B600080911A01C81751F090911A0180911901D2
:100B7000891B8F7090E00995C0931A011092CC00E8
:100B8000D698CC9B04C0CE9BFCCF88EA01C088EFEE
:100B90008DB980EF8EB9FF91EF91CF91BF91AF9159
:100BA0009F918F917F916F915F914F913F912F9185
:100BB0000F900FBE0F901F9018951F920F920FB6B7
:100BC0000F9211248F939F938091DE009091DF000C
:100BD00001979093DF008093DE009F918F910F909B
:100BE0000FBE0F901F90189581B781BF80B78260AC
:100BF00080BF80B7816080BF83B7887F826083BFFA
:100C0000789489B7816089BF8EB5887F8EBD8FB596
:100C100081608FBD8FB58D7F8FBD8EB5877F8EBD77
:100C20008EB58F7E8EBD8EB582608EBD86B1887783
:100C3000836886B9379A84B780936900F894479A95
:100C4000789414BE88E181BD84E481BDA89564E7F1
:100C500070E08091EB00FFDD9091EC00C091EE0020
:100C6000D091EF00882351F0C90FD11DCE010FD2D2
:100C700061E0680F60936E00CE0105C060E09E01E8
:100C8000290F311DC9010BD2412C30E3532E31E124
:100C9000632E712C44E7242E4FE3342E0EEC10E328
:100CA00080B18F6080B985B7877E806185BF14BEB3
:100CB00038E131BD84E481BDA895C0EFD0E003DB0D
:100CC000811114C091C0D9DC789485B7806285BF4A
:100CD000889585B78F7D85BF8091DE009091DF007C
:100CE000181619060CF487C0219749F70FB6F89427
:100CF000A89581B5886181BD11BC0FBE80B1807F90
:100D000080B964E770E08091EB00A5DD8091DD00A3
:100D1000809360008091D700809361008091DB0018
:100D20009091DC0090936300809362008091D500E5
:100D30009091D6009093650080936400D1D9693B6F
:100D40007B408105910550F081E0FFDB20EC822E95
:100D500027E2922E29E0A22EB12C09C082E0F5DB19
:100D600090EC892E94ED992EAA24A394B12C61E0E5
:100D70008091CD0032DA60E08091CD00D9D92FB7D3
:100D8000F8948091E5009091E600A091E700B09181
:100D9000E8002FBF8093CE009093CF00A093D000A7
:100DA000B093D10080912001811168C02FB7F894D1
:100DB0008091E5009091E600A091E700B091E800F5
:100DC0002FBF4091CE005091CF006091D000709124
:100DD000D100841B950BA60BB70B88169906AA06A3
:100DE000BB0608F44BC063C080EA95E09093DF0037
:100DF0008093DE0071CFF89466DA882309F463CF1C
:100E0000789472CFC114D104E104F10491F091E01F
:100E1000C91AD108E108F108C851DC4F2EDA6C1B61
:100E20007D0B683E734070F7C114D104E104F104F6
:100E3000A9F7369A3699FECF24B185B13798009A32
:100E400030E0382B40E050E0C301B20147D1DA0175
:100E5000C901AA27BB2780936A0090936B00A093D7
:100E60006C00B0936D0009DCC1010197F1F738D92E
:100E7000693B7B408105910508F494CFC801019737
:100E8000F1F761E08091CD0053D960E08091CD0011
:100E9000A4D91092CE001092CF001092D0001092E0
:100EA000D100D498D6981DB880EF8EB9F9CE0098AD
:100EB000379A91E297B9E1D9EB0182E0C82ED12CA3
:100EC000E12CF12CABCFEF92FF920F931F93CF93B6
:100ED000DF93CDB7DEB760970FB6F894DEBF0FBED5
:100EE000CDBF8FEF8093C6001092C7001092C8004C
:100EF0001092CA001092C9001092CB00D098809333
:100F0000C00091E09093C1009093C2001092C40081
:100F10001092C3001092C500D1988093BA0022E0CD
:100F20002093BB002093BC001092BE001092BD0025
:100F30001092BF00D2988093B40033E03093B50094
:100F40003093B6001092B8001092B7001092B9001A
:100F5000D3982093B300BA988093D80025E02093CB
:100F6000D9002093DA001092DC001092DB009093FD
:100F7000DD00D5988093D20087E08093D3008093E2
:100F8000D4001092D6001092D5009093D700D79835
:100F90009093E900B99838B381E090E0AC010090FB
:100FA000E90002C0440F551F0A94E2F7242F209550
:100FB000232328BB28B30090E90002C0880F991FA3
:100FC0000A94E2F7822B88BB1092CD001092CE00DB
:100FD0001092CF001092D0001092D10060E080E01B
:100FE000FCD81092EA001092EB0084E18093EC00B0
:100FF00080E18093ED0080E491E09093EF00809396
:10100000EE0000E010E0E12CF12C8091EC0090E08B
:1010100008171907CCF48091EE009091EF00800F33
:10102000911F35D0E80EF11CE114F10419F40F5FA3
:101030001F4FEBCF0093EB00BE016F5F7F4F802F00
:101040000ADC8823A1F316C01092EB000091EA009D
:1010500010E02091EC008091EE009091EF00820F63
:10106000911D0817190730F460E0C80118D00F5F10
:101070001F4FEFCF60960FB6F894DEBF0FBECDBF07
:10108000DF91CF911F910F91FF90EF900895E1991B
:10109000FECF9FBB8EBBE09A99278DB30895262F74
:1010A000E199FECF1CBA9FBB8EBB2DBB0FB6F89447
:1010B000E29AE19A0FBE019608950024552704C0D4
:1010C000080E591F880F991F009729F0769567958C
:1010D000B8F37105B9F7802D952F0895052E97FB6C
:1010E00016F400940FD057FD05D014D007FC02D0A1
:1010F00046F408C050954095309521953F4F4F4F8D
:101100005F4F089590958095709561957F4F8F4FB3
:101110009F4F0895A1E21A2EAA1BBB1BFD010DC013
:10112000AA1FBB1FEE1FFF1FA217B307E407F50797
:1011300020F0A21BB30BE40BF50B661F771F881F73
:10114000991F1A9469F760957095809590959B0109
:10115000AC01BD01CF010895EE0FFF1F0590F49182
:10116000E02D0994DC0101C06D9341505040E0F73F
:061170000895F894FFCF82
:1011760001010000000000000E0000000000000158
:101186000000000000000000000000000000000059
:101196000000000000000000000000000000020047
:00000001FF
