:100000002AC04EC04DC04CC034C54AC049C048C0CB
:1000100047C046C045C0E7C343C042C041C0E2C478
:100020002CC400003A00370000003B0038000202F8
:1000300002010101010101010102010204804020CD
:10004000100804020108000001020304000000007F
:1000500000000000A70611241FBECFE5D2E0DEBFDE
:10006000CDBF10E0A0E6B0E0E8EFFFE002C00590F1
:100070000D92A838B107D9F721E0A8E8B0E001C097
:100080001D92A731B207E1F710E0CBE2D0E003C048
:100090002197FE01A2D7CA32D107D1F701D5AAC74D
:1000A000AFCF86B32091DF0090E0022E02C095957D
:1000B00087950A94E2F780FD11C082E893E10197E9
:1000C000F1F786B390E002C0959587952A95E2F7FF
:1000D0008170992721E082278170089580E008953A
:1000E000CF92DF92EF92FF928FB7F894C090DB002F
:1000F000D090DC00E090DD00F090DE008FBFD1DF1B
:100100008111FDCF2FB7F8948091DB009091DC0036
:10011000A091DD00B091DE002FBFBC01CD016C19B4
:100120007D098E099F09FF90EF90DF90CF90089591
:1001300087FF08C0E82FEF77E83018F48AE08E1BBD
:1001400001C08FEF90E0FC01EA5BFF4F2491FC01BE
:10015000E65CFF4F3491FC01E25DFF4FE491EE233A
:1001600009F43AC0222309F1213031F480B78F77A6
:1001700080BF80B78F7B07C0223039F480B78F7D76
:1001800080BF80B78F7E80BF10C0233031F48FB521
:100190008F778FBD8FB58F7B07C0243031F48FB53B
:1001A0008F7D8FBD8FB58F7E8FBDF0E0EE0FFF1F6F
:1001B000E85DFF4FA591B491611108C09FB7F89415
:1001C0008C91309538233C939FBF08958FB7F89456
:1001D000EC913E2B3C938FBF0895CF93DF9387FF25
:1001E00008C0E82FEF77E83018F48AE08E1B01C0D2
:1001F0008FEF90E0FC01E65CFF4F2491FC01E25D93
:10020000FF4F8491882361F190E0880F991FFC01D2
:10021000EE5DFF4FC591D491FC01E85DFF4FA591C4
:10022000B491611109C09FB7F89488812095822309
:100230008883EC912E230BC0623061F49FB7F89451
:100240008881322F309583238883EC912E2B2C9339
:100250009FBF06C08FB7F894E8812E2B28838FBFED
:10026000DF91CF9108953FB7F8948091D700909196
:10027000D800A091D900B091DA0022B708B600FEEC
:1002800005C02F3F19F00196A11DB11D3FBFBA2F28
:10029000A92F982F8827820F911DA11DB11DBC0188
:1002A000CD0143E0660F771F881F991F4A95D1F74C
:1002B0000895FC012BB381E090E0018002C0880F1B
:1002C000991F0A94E2F7822B8BBB82818F7387B9C7
:1002D000369A3699FECF84B125B190E0922B4BB37C
:1002E00021E030E0018002C0220F331F0A94E2F7C0
:1002F000209524232BBB8337910548F08A3A91053A
:1003000040F0803223E0920730F023E005C020E087
:1003100003C021E001C022E02583223028F423E03D
:1003200020839483838308C0808187FD02C081502D
:10033000808381E09081911180E00895CF93FC014A
:10034000680F791F80E03CEB41E652ECADE9B3E287
:10035000C6E42CE8E617F707B9F09191982790FFCB
:1003600002C08EE501C080E091FD832792FD8427C5
:1003700093FD852794FD8A2795FD8B2796FD8C2775
:1003800097FFE8CF8227E6CFCF9108959091E600BE
:10039000492F50E020910D0180910E012F5F821BAB
:1003A0008F7099F080910D018F5F8F7020910E01F9
:1003B0008217E1F3E82FF0E0E856FF4FDA01A95188
:1003C000BF4F2C91208380930D01453251051CF4C1
:1003D0009F5F9093E6000895CF93DF938091A900EB
:1003E000882329F09091A80089130BC007C0909131
:1003F000100180910F01891B8F7071F4CFEFDFEF37
:100400001DC0E92FF0E0E857FF4F8081C82FD0E0F2
:100410009F5F9093A80012C09091100180910F01EE
:100420009817E1F3E0911001EF5FEF70E093100196
:10043000F0E0E857FF4F8081C82FD0E046E250E05F
:100440006AEA70E087EE90E0CED51092E600CE0129
:1004500099278D349105F9F0A4F48234910519F5AA
:1004600064E270E080E690E069DF8093840086E2D9
:10047000E0E6F0E0A7EEB0E001900D928A95E1F79A
:1004800012C08435910561F08A35910561F481E0EF
:100490008093160108C0809186008093E70003C016
:1004A00082E080938600DF91CF910895809386004B
:1004B0001092100110920F0110920E0110920D0176
:1004C0008AE080931501109214011092130110928A
:1004D000120110921101DC9ADE9AD49AD69888EA19
:1004E0008DB980EF8EB98CEE91E0909312018093DC
:1004F000110186EC91E09093140180931301109206
:10050000160146E250E06AEA70E087EE90E06BD5B3
:100510001092E60008959F92AF92BF92CF92DF9221
:10052000EF92FF920F931F93CF93DF936091E100BF
:10053000062F10E08091E20090E00197081719075C
:1005400014F46F5F01C060E06093E1008091E3000C
:1005500070E090E0F3D42091E000820F911D20E73D
:10056000C22E20E0D22EC0E6D0E09C0120563040C2
:1005700079019C845701AC0EBD1EC501C9D49816E3
:1005800019F0692DC501CCD42196CC16DD0689F76A
:100590006091E30070E08CE690E0D0DE682F81117E
:1005A00001C061E02091E1008091E4009091E500BC
:1005B000820F911DB5D48091E4009091E50060E038
:1005C000800F911FDF91CF911F910F91FF90EF90BE
:1005D000DF90CF90BF90AF909F90A2C40098379AC1
:1005E00088EC90E066DE882301F180916C009091A8
:1005F0006D00A0916E00B0916F000196A11DB11D1C
:1006000080936C0090936D00A0936E00B0936F0088
:100610008091CD00809368008091CB009091CC00B8
:1006200090937D0080937C0076DF82EC90E041DE49
:10063000882301F18091700090917100A091720067
:10064000B09173000196A11DB11D8093700090932D
:100650007100A0937200B09373008091C7008093E3
:1006600069008091C5009091C60090937F008093AF
:100670007E0051DF8CEB90E01CDE882301F180913D
:10068000740090917500A0917600B091770001966A
:10069000A11DB11D8093740090937500A093760006
:1006A000B09377008091C10080936A008091BF0071
:1006B0009091C00090938100809380002CDF86EBA6
:1006C00090E0F7DD882301F1809178009091790026
:1006D000A0917A00B0917B000196A11DB11D80937D
:1006E000780090937900A0937A00B0937B0080917A
:1006F000BB0080936B008091B9009091BA009093F9
:1007000083008093820007DF3798009A08954F9204
:100710005F926F927F928F929F92AF92BF92CF9291
:10072000DF92EF92FF920F931F93CF93DF93CDB79A
:10073000DEB760970FB6F894DEBF0FBECDBF3B01AA
:10074000C090E3002091E000E82EF12CD12CC701ED
:10075000B601F4D3820F911D8E010F5F1F4F2E0142
:1007600021E1420E511C58014C01801A910AC4012A
:100770008A0D9B1DCDD3F50181935F01E415F5052D
:10078000B1F7B601C801DADDD82E8091E40090916E
:10079000E5008E0D9F1DBCD3D81621F0813059F491
:1007A000D11009C080E1F801D30101900D928A9522
:1007B000E1F781E001C080E060960FB6F894DEBFFB
:1007C0000FBECDBFDF91CF911F910F91FF90EF90A2
:1007D000DF90CF90BF90AF909F908F907F906F9061
:1007E0005F904F9008951F920F920FB60F921124B1
:1007F0002F933F938F939F93AF93BF938091DB0091
:100800009091DC00A091DD00B091DE003091D60027
:1008100026E0230F2D3730F029E8230F0396A11D82
:10082000B11D03C00296A11DB11D2093D600809377
:10083000DB009093DC00A093DD00B093DE0080919C
:10084000D7009091D800A091D900B091DA0001961C
:10085000A11DB11D8093D7009093D800A093D9001B
:10086000B093DA00BF91AF919F918F913F912F91FB
:100870000F900FBE0F901F9018951F920F920FB6FA
:100880000F9211242F933F934F935F936F937F9316
:100890008F939F93AF93BF93CF93EF93FF938091E9
:1008A000CE00823009F44CC028F4882359F08130FE
:1008B00051F186C0843009F449C010F1853009F443
:1008C00067C07EC08FB1882331F08FB1869590913B
:1008D0001501891330C0789B0DC0E0911301F09190
:1008E0001401309729F080910D0180930E01099534
:1008F00081E001C084E08093CE001FB8D69A5EC02C
:100900008FB1811118C090910E0180910D0198173F
:1009100091F080910E018F5F8F7080930E01E091B6
:100920000E01F0E0E856FF4F80818FB982E080939E
:10093000CE00D69A03C0D69888EA8DB980E73FC02A
:1009400083E08093CE00D6981FB838C085E08093AE
:10095000CE00D69880E78EB9E0911101F091120196
:10096000309771F1C0910F0180911001C81741F1CA
:100970008EB18E7AE9F3759B23C09091100180911E
:100980000F01891B8F7090E00995C093100118C06A
:1009900084E08093CE009FB180910F018F5F8F70B4
:1009A00020911001821749F080930F01E0910F010F
:1009B000F0E0E857FF4F9083A0CFD6988EE78EB92E
:1009C000FF91EF91CF91BF91AF919F918F917F91C7
:1009D0006F915F914F913F912F910F900FBE0F90AC
:1009E0001F9018951F920F920FB60F9211242F93FC
:1009F0003F934F935F936F937F938F939F93AF93A7
:100A0000BF93CF93EF93FF93E0911101F091120107
:100A1000309781F0C0910F0180911001C81751F0FB
:100A20009091100180910F01891B8F7090E00995C2
:100A3000C09310011092CE00D698CC9B04C0CE9BE0
:100A4000FCCF88EA01C088EF8DB980EF8EB9FF91A5
:100A5000EF91CF91BF91AF919F918F917F916F91C6
:100A60005F914F913F912F910F900FBE0F901F906C
:100A700018951F920F920FB60F9211248F939F9388
:100A80008091D4009091D50001979093D5008093E8
:100A9000D4009F918F910F900FBE0F901F901895CB
:100AA00081B781BF80B7826080BF80B7816080BF1F
:100AB00083B7887F826083BF789489B7816089BF5C
:100AC0008EB5887F8EBD8FB581608FBD8FB58D7FD0
:100AD0008FBD8EB5877F8EBD8EB58F7E8EBD8EB558
:100AE00082608EBD86B18877836886B9379A84B76D
:100AF00080936100F894479A789414BE88E181BD90
:100B000084E481BDA8956CE670E08091E100FFDD92
:100B10009091E200C091E400D091E500882351F06B
:100B2000C90FD11DCE01F4D161E0680F609366005A
:100B3000CE0105C060E09E01290F311DC901F0D131
:100B4000412C30E3532E31E1632E712C44E7242EE7
:100B50004FE3342E0EEC10E380B18F6080B985B77F
:100B6000877E806185BF14BE38E131BD84E481BDDC
:100B7000A895C0EFD0E095DA811114C079C02EDDC0
:100B8000789485B7806285BF889585B78F7D85BF4E
:100B90008091D4009091D500181619060CF46FC0FE
:100BA000219749F70FB6F894A89581B5886181BD62
:100BB00011BC0FBE80B1807F80B96CE670E080917F
:100BC000E100A5DD8DDA693B7B408105910550F0A0
:100BD00081E06CDC20EC822E27E2922E29E0A22E0E
:100BE000B12C09C082E062DC90EC892E94ED992E44
:100BF000AA24A394B12C61E08091CF00EEDA60E0EA
:100C00008091CF0095DA2FB7F8948091DB00909116
:100C1000DC00A091DD00B091DE002FBF8093D000FA
:100C20009093D100A093D200B093D300809116018D
:100C3000811168C02FB7F8948091DB009091DC009F
:100C4000A091DD00B091DE002FBF4091D000509107
:100C5000D1006091D2007091D300841B950BA60B3C
:100C6000B70B88169906AA06BB0608F44BC063C0EA
:100C700080EA95E09093D5008093D40089CFF894D2
:100C800010DA882309F47BCF78948ACFC114D10479
:100C9000E104F10491F091E0C91AD108E108F108EA
:100CA000C851DC4FE0DA6C1B7D0B683E734070F777
:100CB000C114D104E104F104A9F7369A3699FECFA4
:100CC00024B185B13798009A30E0382B40E050E0ED
:100CD000C301B20144D1DA01C901AA27BB2780931D
:100CE000620090936300A0936400B093650076DC8B
:100CF000C1010197F1F7F4D9693B7B40810591056A
:100D000008F494CFC8010197F1F761E08091CF001A
:100D10000FDA60E08091CF0060DA1092D00010927C
:100D2000D1001092D2001092D300D498D6981DB85A
:100D300080EF8EB911CF0098379A91E297B993DA84
:100D4000EB0182E0C82ED12CE12CF12CABCFEF923D
:100D5000FF920F931F93CF93DF93CDB7DEB76097CA
:100D60000FB6F894DEBF0FBECDBF8FEF8093C800E3
:100D70001092C9001092CA001092CC001092CB00C1
:100D80001092CD00D0988093C20091E09093C30060
:100D90009093C4001092C6001092C5001092C70034
:100DA000D1988093BC0022E02093BD002093BE0028
:100DB0001092C0001092BF001092C100D298809390
:100DC000B60023E02093B7002093B8001092BA0039
:100DD0001092B9001092BB00D3988093B00025E028
:100DE0002093B1002093B2001092B4001092B3008F
:100DF0001092B500D5988093AA0087E08093AB004D
:100E00008093AC001092AE001092AD001092AF0033
:100E1000D7989093DF00B99838B381E090E0AC01A7
:100E20000090DF0002C0440F551F0A94E2F7242F00
:100E30002095232328BB28B30090DF0002C0880F31
:100E4000991F0A94E2F7822B88BB1092CF00109270
:100E5000D0001092D1001092D2001092D30060E026
:100E600080E0BBD91092E0001092E10084E1809311
:100E7000E20080E18093E30080E491E09093E5005C
:100E80008093E40000E010E0E12CF12C8091E2007E
:100E900090E008171907CCF48091E4009091E500E8
:100EA000800F911F35D0E80EF11CE114F10419F404
:100EB0000F5F1F4FEBCF0093E100BE016F5F7F4FCD
:100EC000802F25DC8823A1F316C01092E100009149
:100ED000E00010E02091E2008091E4009091E500B4
:100EE000820F911D0817190730F460E0C80118D06F
:100EF0000F5F1F4FEFCF60960FB6F894DEBF0FBEA7
:100F0000CDBFDF91CF911F910F91FF90EF9008958A
:100F1000E199FECF9FBB8EBBE09A99278DB30895D0
:100F2000262FE199FECF1CBA9FBB8EBB2DBB0FB6FF
:100F3000F894E29AE19A0FBE01960895002455278D
:100F400004C0080E591F880F991F009729F0769545
:100F50006795B8F37105B9F7802D952F0895052E83
:100F600097FB16F400940FD057FD05D014D007FC62
:100F700002D046F408C050954095309521953F4FDA
:100F80004F4F5F4F089590958095709561957F4F75
:100F90008F4F9F4F0895A1E21A2EAA1BBB1BFD0184
:100FA0000DC0AA1FBB1FEE1FFF1FA217B307E40748
:100FB000F50720F0A21BB30BE40BF50B661F771FA0
:100FC000881F991F1A9469F7609570958095909580
:100FD0009B01AC01BD01CF010895EE0FFF1F0590ED
:100FE000F491E02D0994DC0101C06D934150504013
:080FF000E0F70895F894FFCF2B
:100FF8000D000000000000010000000000000000DB
:1010080000000000000000000000000000000000D8
:081018000000000000000200CE
:00000001FF
