:100000009AC0BEC0BDC0BCC0B4C3BAC0B9C0B8C03D
:10001000B7C0B6C0B5C017C260C2B2C0B1C062C37B
:10002000ACC2203A2000203A2000203A2000203A9A
:100030002000446174613A00203A2000203A2000F8
:10004000454550524F4D20757365643A00203A2063
:1000500000203A2000524553455400203A20002009
:100060003A20004D4355535200203A20003D3D3D7B
:100070003D205354415254203D3D3D3D00203A2007
:1000800000536C6565702072656365697665640010
:10009000203A20004553502077616B652075702011
:1000A0006661696C00203A200045535020747572D7
:1000B0006E206F6E00203A200077616B65207570AE
:1000C00020666F72207472616E736D697474696EEC
:1000D0006700203A200053455455502070726573D4
:1000E00073656400203A2000203A2000203A200066
:1000F000203A2000203A2000446174613A00203AFE
:10010000200000003A00370000003B0038000202E7
:1001100002010101010101010102010204804020EC
:10012000100804020108000001020304000000009E
:1001300000000000620911241FBECFE5D2E0DEBF3F
:10014000CDBF21E0A8E9B0E001C01D92AF35B207F4
:10015000E1F710E0A0E6B0E0E4EDF5E102C00590C3
:100160000D92A839B107D9F710E0CBE9D0E003C070
:100170002197FE011CDACA39D107D1F75AD628CA0D
:100180003FCF08952FB7F894FC01458556853AE096
:100190006095089420F47BB375237BBB04C07BB3CC
:1001A000742B7BBB0000E3D1E2D1E1D1E0D16695B5
:1001B0003A9581F72FBF81E090E00895DC011F960A
:1001C000ED91FC91509722A133A180A191A18217BA
:1001D000930761F0DF01A20FB31F8C912F5F3F4F98
:1001E0002F71332733A322A390E008958FEF9FEF61
:1001F0000895DC011F96ED91FC91509782A193A187
:1002000020A131A12817390729F0E80FF91F8081B3
:1002100090E008958FEF9FEF0895DC011F96ED9118
:10022000FC91509780A191A122A133A1821B930B35
:100230008F7199270895CF92DF92EF92FF920F93DB
:100240001F93CF93DF936C01EB017B01E40EF51E4E
:1002500000E010E0CE15DF0561F06991D601ED9167
:10026000FC910190F081E02DC6010995080F191F3E
:10027000F1CFC801DF91CF911F910F91FF90EF90C7
:10028000DF90CF900895FC012BB381E090E00180D6
:1002900002C0880F991F0A94E2F7822B8BBB8281E0
:1002A0008F7387B9369A3699FECF84B125B190E025
:1002B000922B4BB321E030E0018002C0220F331FAC
:1002C0000A94E2F7209524232BBB8337910548F04D
:1002D0008A3A910540F0803223E0920730F023E023
:1002E00005C020E003C021E001C022E025832230C8
:1002F00028F423E020839483838308C0808187FDD2
:1003000002C08150808381E09081911180E0089546
:100310009091C600492F50E02091ED008091EE00B1
:100320002F5F821B8F7099F08091ED008F5F8F702F
:100330002091EE008217E1F3E82FF0E0E855FF4F3F
:10034000DA01A953BF4F2C9120838093ED004532F1
:1003500051051CF49F5F9093C60008952ED9009814
:10036000379A83E291E08FDF882301F180916C005E
:1003700090916D00A0916E00B0916F000196A11D4B
:10038000B11D80936C0090936D00A0936E00B093AC
:100390006F008091280180936800809126019091E0
:1003A000270190937D0080937C00C1D28DE191E084
:1003B0006ADF882301F18091740090917500A0910B
:1003C0007600B09177000196A11DB11D8093740055
:1003D00090937500A0937600B093770080912201EE
:1003E00080936A0080912001909121019093810077
:1003F000809380009CD287E191E045DF882301F162
:100400008091780090917900A0917A00B0917B0062
:100410000196A11DB11D8093780090937900A0935F
:100420007A00B0937B0080911C0180936B008091D7
:100430001A0190911B01909383008093820077D2E0
:100440003798009A08951F920F920FB60F921124B9
:100450002F933F938F939F93AF93BF938091BE0051
:100460009091BF00A091C000B091C1003091BD003B
:1004700026E0230F2D3730F029E8230F0396A11D26
:10048000B11D03C00296A11DB11D2093BD00809334
:10049000BE009093BF00A093C000B093C1008091B4
:1004A000C2009091C300A091C400B091C500019614
:1004B000A11DB11D8093C2009093C300A093C400FE
:1004C000B093C500BF91AF919F918F913F912F91B4
:1004D0000F900FBE0F901F9018951F920F920FB69E
:1004E0000F9211242F933F934F936F937F938F938A
:1004F0009F93AF93BF93EF93FF933091050140E03B
:1005000028E035D034D033D032D031D0889479B38C
:10051000732309F0089447952A9509F0F3CF27D063
:1005200026D0E0910801F091090120A131A1C90173
:1005300001968F71992762A173A18617970731F0F1
:10054000DF01A20FB31F4C9391A380A3449AFF91A4
:10055000EF91BF91AF919F918F917F916F914F914B
:100560003F912F910F900FBE0F901F901895809183
:100570000A01982F9A95F1F708951F920F920FB6DE
:100580000F9211242F933F934F935F936F937F9319
:100590008F939F93AF93BF93CF93EF93FF938091EC
:1005A000BA00823009F44CC028F4882359F0813015
:1005B00051F186C0843009F449C010F1853009F446
:1005C00067C07EC08FB1882331F08FB1869590913E
:1005D000F500891330C0789B0DC0E091F300F091D5
:1005E000F400309729F08091ED008093EE0009959A
:1005F00081E001C084E08093BA001FB8D69A5EC043
:100600008FB1811118C09091EE008091ED00981784
:1006100091F08091EE008F5F8F708093EE00E091FB
:10062000EE00F0E0E855FF4F80818FB982E08093C3
:10063000BA00D69A03C0D69888EA8DB980E73FC041
:1006400083E08093BA00D6981FB838C085E08093C5
:10065000BA00D69880E78EB9E091F100F091F200EF
:10066000309771F1C091EF008091F000C81741F10F
:100670008EB18E7AE9F3759B23C09091F000809142
:10068000EF00891B8F7090E00995C093F00018C0AF
:1006900084E08093BA009FB18091EF008F5F8F70EC
:1006A0002091F000821749F08093EF00E091EF0075
:1006B000F0E0E856FF4F9083A0CFD6988EE78EB932
:1006C000FF91EF91CF91BF91AF919F918F917F91CA
:1006D0006F915F914F913F912F910F900FBE0F90AF
:1006E0001F9018951F920F920FB60F9211242F93FF
:1006F0003F934F935F936F937F938F939F93AF93AA
:10070000BF93CF93EF93FF93E091F100F091F2004C
:10071000309781F0C091EF008091F000C81751F040
:100720009091F0008091EF00891B8F7090E0099507
:10073000C093F0001092BA00D698CC9B04C0CE9B18
:10074000FCCF88EA01C088EF8DB980EF8EB9FF91A8
:10075000EF91CF91BF91AF919F918F917F916F91C9
:100760005F914F913F912F910F900FBE0F901F906F
:1007700018951F920F920FB60F9211248F939F938B
:100780008091BB009091BC0001979093BC00809336
:10079000BB009F918F910F900FBE0F901F901895E7
:1007A000CF93FC01680F791F80E03CEB41E652ECEF
:1007B000ADE9B3E2C6E42CE8E617F707B9F091918A
:1007C000982790FF02C08EE501C080E091FD83274D
:1007D00092FD842793FD852794FD8A2795FD8B271D
:1007E00096FD8C2797FFE8CF8227E6CFCF9108951B
:1007F000CF93DF938091B900882329F09091B800BE
:1008000089130BC007C09091F0008091EF00891B05
:100810008F7071F4CFEFDFEF1DC0E92FF0E0E856E5
:10082000FF4F8081C82FD0E09F5F9093B80012C027
:100830009091F0008091EF009817E1F3E091F000C3
:10084000EF5FEF70E093F000F0E0E856FF4F80813B
:10085000C82FD0E046E250E06AEA70E087EC90E012
:10086000B0D61092C600CE0199278D349105F9F0CB
:10087000A4F48234910519F564E270E080E690E01A
:100880008FDF8093840086E2E0E6F0E0A7ECB0E042
:1008900001900D928A95E1F712C08435910561F0BF
:1008A0008A35910561F481E08093F70008C080915A
:1008B00086008093C70003C082E080938600DF91AA
:1008C000CF910895809386001092F0001092EF006F
:1008D0001092EE001092ED008AE08093F5001092E5
:1008E000F4001092F3001092F2001092F100DC9AE2
:1008F000DE9AD49AD69888EA8DB980EF8EB988EFBF
:1009000093E09093F2008093F10088E891E0909357
:10091000F4008093F3001092F70046E250E06AEA98
:1009200070E087EC90E04DD61092C60008959F923B
:10093000AF92BF92CF92DF92EF92FF920F931F93ED
:10094000CF93DF9360910C01062F10E080910D0191
:1009500090E001970817190714F46F5F01C060E079
:1009600060930C0180910E0170E090E0D1D5209150
:100970000B01820F911D20E7C22E20E0D22EC0E68F
:10098000D0E09C012056304079019C845701AC0E88
:10099000BD1EC5019ED5981619F0692DC501A1D5BA
:1009A0002196CC16DD0689F760910E0170E08CE689
:1009B00090E0F6DE682F811101C061E020910C010A
:1009C00080910F0190911001820F911D8AD5809125
:1009D0000F019091100160E0800F911FDF91CF9186
:1009E0001F910F91FF90EF90DF90CF90BF90AF904D
:1009F0009F9077C54F925F926F927F928F929F9256
:100A0000AF92BF92CF92DF92EF92FF920F931F931C
:100A1000CF93DF93CDB7DEB760970FB6F894DEBF04
:100A20000FBECDBF3B01C0900E0120910B01E82EFF
:100A3000F12CD12CC701B6016BD5820F911D8E010F
:100A40000F5F1F4F2E0121E1420E511C58014C0136
:100A5000801A910AC4018A0D9B1D3BD5F501819333
:100A60005F01E415F505B1F7B601C80199DED82E8E
:100A700080910F01909110018E0D9F1D2AD5D816DF
:100A800021F0813059F4D11009C080E1F801D3017F
:100A900001900D928A95E1F781E001C080E06096B7
:100AA0000FB6F894DEBF0FBECDBFDF91CF911F917F
:100AB0000F91FF90EF90DF90CF90BF90AF909F90FD
:100AC0008F907F906F905F904F90089586B32091A4
:100AD000160190E0022E02C0959587950A94E2F7E0
:100AE00080FD11C082E893E10197F1F786B390E0B1
:100AF00002C0959587952A95E2F78170992721E0A4
:100B000082278170089580E00895CF93DF936DE090
:100B100089EF90E037DBEC016AE089EF90E032DBAF
:100B20008C0F9D1FDF91CF9108958F929F92AF926E
:100B3000BF92EF92FF920F931F93CF93DF93CDB7A6
:100B4000DEB7A1970FB6F894DEBF0FBECDBF162F4C
:100B5000042F19A2423008F40AE07E0121E2E20EDD
:100B6000F11C802E912CA12CB12C612FA501940198
:100B7000E0D4802F622FC3D4181B81E0E81AF1085B
:100B80001A3014F4105D01C0195CF7011083122FA4
:100B9000732FCA01232B242B252B39F7019000201A
:100BA000E9F73197AF014E195F09B70189EF90E07E
:100BB00042DBA1960FB6F894DEBF0FBECDBFDF912A
:100BC000CF911F910F91FF90EF90BF90AF909F90AA
:100BD0008F9008954AE0A9CFCF93DF934AE0A5DF35
:100BE000EC0193DF8C0F9D1FDF91CF9108950F9340
:100BF0001F93CF93DF938C01C0E0D0E0F801EC0F9E
:100C0000FD1F6491662339F089EF90E0BBDA892BF0
:100C100011F02196F3CFCE01DF91CF911F910F916B
:100C20000895CF93DF93E3DFEC016FDF8C0F9D1FFF
:100C3000DF91CF910895E9EFF0E085E0818B439853
:100C4000469A47984298419A409A9AB38485282FA9
:100C5000209592239ABB9BB3892B8BBB9AB3858536
:100C6000982B9ABB9BB3892B8BBB449A439A0895CC
:100C700087FF08C0E82FEF77E83018F48AE08E1B72
:100C800001C08FEF90E0FC01EA5DFE4F2491FC0172
:100C9000E65EFE4F3491FC01E25FFE4FE491EE23ED
:100CA00009F43AC0222309F1213031F480B78F775B
:100CB00080BF80B78F7B07C0223039F480B78F7D2B
:100CC00080BF80B78F7E80BF10C0233031F48FB5D6
:100CD0008F778FBD8FB58F7B07C0243031F48FB5F0
:100CE0008F7D8FBD8FB58F7E8FBDF0E0EE0FFF1F24
:100CF000E85FFE4FA591B491611108C09FB7F894C9
:100D00008C91309538233C939FBF08958FB7F8940A
:100D1000EC913E2B3C938FBF0895CF93DF9387FFD9
:100D200008C0E82FEF77E83018F48AE08E1B01C086
:100D30008FEF90E0FC01E65EFE4F2491FC01E25F44
:100D4000FE4F8491882361F190E0880F991FFC0188
:100D5000EE5FFE4FC591D491FC01E85FFE4FA59177
:100D6000B491611109C09FB7F894888120958223BE
:100D70008883EC912E230BC0623061F49FB7F89406
:100D80008881322F309583238883EC912E2B2C93EE
:100D90009FBF06C08FB7F894E8812E2B28838FBFA2
:100DA000DF91CF9108953FB7F8948091C200909160
:100DB000C300A091C400B091C50022B708B600FEE0
:100DC00005C02F3F19F00196A11DB11D3FBFBA2FDD
:100DD000A92F982F8827820F911DA11DB11DBC013D
:100DE000CD0143E0660F771F881F991F4A95D1F701
:100DF00008952FB7F8946091BE007091BF00809164
:100E0000C0009091C1002FBF0895CF92DF92EF9262
:100E1000FF92EFDF6B017C0159DE8111FDCFE9DF2D
:100E20006C197D098E099F09FF90EF90DF90CF909C
:100E3000089581B781BF80B7826080BF80B781602D
:100E400080BF83B7887F826083BF789489B78160D1
:100E500089BF8EB5887F8EBD8FB581608FBD8FB500
:100E60008D7F8FBD8EB5877F8EBD8EB58F7E8EBDFB
:100E70008EB582608EBD86B18877836886B9379AD1
:100E800084B780936100F894479A789414BE88E1FF
:100E900081BD84E481BDA8956CE670E080910C0171
:100EA000A9DD90910D01C0910F01D091100188230F
:100EB00051F0C90FD11DCE010CD361E0680F6093D2
:100EC0006600CE0105C060E09E01290F311DC901F9
:100ED00008D3B1DE439888B18F6788B98ADF7ADE9C
:100EE0008DE790E084DE8DE690E09BDE82DF72DEAF
:100EF00089E690E07CDE83E690E093DE7ADF6ADECE
:100F00008FE590E074DE6091610070E080E090E039
:100F10004AE00BDEFADD6DDF5DDE8BE590E067DE3B
:100F200085E590E07EDE65DF55DE81E590E05FDE01
:100F30006091660070E080E090E04AE0F6DDE5DD7B
:100F400058DF48DE8DE490E052DE80E490E069DE18
:100F500050DF40DE8CE390E04ADE60910F0170913B
:100F600010016F5F7F4F80910D01680F711D80E050
:100F700090E04AE0DADDC9DD3CDF2CDE88E390E07A
:100F800036DE82E390E04DDE34DF24DE8EE290E058
:100F90002EDE60916C0070916D0080916E009091DA
:100FA0006F001ADE26DF16DE8AE290E020DE609116
:100FB00070007091710080917200909173000CDE4E
:100FC00018DF08DE86E290E012DE60917400709116
:100FD00075008091760090917700FEDD0ADFFADDE2
:100FE00082E290E004DE6091780070917900809157
:100FF0007A0090917B00F0DD412C30E3532E31E1FB
:10100000632E712C44E7242E4FE3342E0EEC10E3B4
:1010100080B18F6080B985B7877E806185BF14BE3F
:1010200038E131BD84E481BDA895C0EFD0E04EDD4C
:10103000811114C0C4C093D9789485B7806285BFEC
:10104000889585B78F7D85BF8091BB009091BC004E
:10105000181619060CF4BAC0219749F70FB6F89480
:10106000A89581B5886181BD11BC0FBE80B1807F1C
:1010700080B96CE670E080910C01BCDCDCDD43984B
:1010800088B18F6788B9B5DEA5DD8EEF90E0AFDD62
:1010900088EF90E0C6DDADDE9DDD84EF90E0A7DD5A
:1010A00060916C0070916D0080916E0090916F0066
:1010B00093DD9FDE8FDD80EF90E099DD6091700021
:1010C00070917100809172009091730085DD91DEC6
:1010D00081DD8CEE90E08BDD609174007091750085
:1010E000809176009091770077DD83DE73DD88EE66
:1010F00090E07DDD609178007091790080917A00B8
:1011000090917B0069DD81DE693B7B408105910523
:1011100090F06FDE5FDD84EE90E069DD86ED90E0BB
:1011200080DD81E0CFDB20EC822E27E2922E29E0C9
:10113000A22EB12C11C05DDE4DDD82ED90E057DDB9
:1011400089EB90E06EDD82E0BDDB90EC892E94EDC2
:10115000992EAA24A394B12C61E080911101DDDDC8
:1011600060E08091110184DD44DE60931201709390
:10117000130180931401909315013BDE2BDD85EB69
:1011800090E035DD89EA90E04CDD8091F700811137
:1011900060C02FDEC0901201D0901301E0901401C6
:1011A000F0901501DC01CB018C199D09AE09BF0936
:1011B00088169906AA06BB0608F44BC077C080EAD9
:1011C00095E09093BC008093BB003ECFF8947EDC0A
:1011D000882309F430CF78943FCFC114D104E104BF
:1011E000F10491F091E0C91AD108E108F108C85161
:1011F000DC4FD9DD6C1B7D0B683E734070F7C1146A
:10120000D104E104F104A9F7369A3699FECF24B14E
:1012100085B13798009A30E0382B40E050E0C301A8
:10122000B201A9D1DA01C901AA27BB2780936200C4
:1012300090936300A0936400B093650090D8C101BF
:101240000197F1F7E2DD693B7B408105910508F4E8
:101250009CCFC8010197F1F761E08091110108DD91
:1012600060E08091110159DD10921201109213017A
:101270001092140110921501D498D6981DB880EFE1
:101280008EB98091F700811108C0B3DDA3DC85EA37
:1012900090E0ADDC84E990E007C0ABDD9BDC80E949
:1012A00090E0A5DC81E890E0BCDCB2CE0098379AF3
:1012B00091E297B978DDEB0182E0C82ED12CE12CC8
:1012C000F12C97CFEF92FF920F931F93CF93DF9361
:1012D000CDB7DEB760970FB6F894DEBF0FBECDBFB7
:1012E0001092FC001092FB0088EE93E0A0E0B0E0CA
:1012F0008093FD009093FE00A093FF00B093000147
:101300008BE890E09093FA008093F90089E291E0F5
:10131000909309018093080184E08093050122E005
:10132000209306018DEF8093070110920A018FEF41
:10133000809323011092240110922501109227011D
:101340001092260110922801D0988093590191E0C3
:1013500090935A0190935B0110925D0110925C0191
:1013600010925E01D19880931D0120931E0120935D
:101370001F01109221011092200110922201D29897
:101380008093170123E020931801209319011092F4
:101390001B0110921A0110921C01D39880935301E3
:1013A00025E020935401209355011092570110928B
:1013B000560110925801D59880934D0187E0809393
:1013C0004E0180934F0110925101109250011092E2
:1013D0005201D79890931601B99838B381E090E004
:1013E000AC010090160102C0440F551F0A94E2F7A9
:1013F000242F2095232328BB28B30090160102C078
:10140000880F991F0A94E2F7822B88BB1092110172
:1014100010921201109213011092140110921501F2
:1014200060E080E07ADC10920B0110920C0184E104
:1014300080930D0180E180930E0180E491E0909310
:10144000100180930F0100E010E0E12CF12C80915D
:101450000D0190E008171907CCF480910F019091CD
:101460001001800F911F35D0E80EF11CE114F1043A
:1014700019F40F5F1F4FEBCF00930C01BE016F5F9C
:101480007F4F802FB7DA8823A1F316C010920C018A
:1014900000910B0110E020910D0180910F019091BE
:1014A0001001820F911D0817190730F460E0C80180
:1014B00018D00F5F1F4FEFCF60960FB6F894DEBFC6
:1014C0000FBECDBFDF91CF911F910F91FF90EF9095
:1014D0000895E199FECF9FBB8EBBE09A99278DB30B
:1014E0000895262FE199FECF1CBA9FBB8EBB2DBB62
:1014F0000FB6F894E29AE19A0FBE0196089500247F
:1015000080FD060E660F11F08695D1F7802D0895A7
:101510000024552704C0080E591F880F991F0097F3
:1015200029F076956795B8F37105B9F7802D952F59
:101530000895A1E21A2EAA1BBB1BFD010DC0AA1F14
:10154000BB1FEE1FFF1FA217B307E407F50720F02C
:10155000A21BB30BE40BF50B661F771F881F991FA7
:101560001A9469F760957095809590959B01AC01F0
:10157000BD01CF010895052E97FB16F400940FD0FE
:1015800057FD05D0D6DF07FC02D046F408C05095C1
:101590004095309521953F4F4F4F5F4F089590955F
:1015A0008095709561957F4F8F4F9F4F0895EE0FF7
:1015B000FF1F0590F491E02D099481E090E0F894EC
:1015C00007C0DC0101C06D9341505040E0F7089521
:0415D000F894FFCFBD
:1015D4000D000000000000010000000000000000F9
:1015E40000000000000000000000000000000000F7
:1015F4000000000000000200000000C2001B010DFA
:0816040001DE00F900C1000045
:00000001FF
