:100000002AC04EC04DC04CC0F4C54AC049C048C00B
:1000100047C046C045C0A5C443C042C041C0A2C5F8
:10002000EAC400003A00370000003B00380002023A
:1000300002010101010101010102010204804020CD
:10004000100804020108000001020304000000007F
:1000500000000000040811241FBECFE5D2E0DEBF7F
:10006000CDBF10E0A0E6B0E0E6ECF1E102C0059003
:100070000D92A838B107D9F721E0A8E8B0E001C097
:100080001D92AB31B207E1F710E0CBE2D0E003C044
:100090002197FE0189D8CA32D107D1F725D691C858
:1000A000AFCF86B32091E30090E0022E02C0959579
:1000B00087950A94E2F780FD0FC082E893E10197EB
:1000C000F1F786B390E002C0959587952A95E2F7FF
:1000D000809590958170089580E00895CF92DF9289
:1000E000EF92FF928FB7F894C090DF00D090E000BD
:1000F000E090E100F090E2008FBFD3DF8111FDCFEF
:100100002FB7F8946091DF007091E0008091E100DA
:100110009091E2002FBF6C197D098E099F09FF9015
:10012000EF90DF90CF90089587FF07C0E82FEF771B
:100130008AE08E1BE83008F08FEF90E0FC01EA5B6C
:10014000FF4F3491FC01E65CFF4F2491FC01E25D1E
:10015000FF4FE491EE23B9F0332329F03130A1F4BD
:1001600080B78F7780BFF0E0EE0FFF1FE85DFF4F95
:10017000A591B4918FB7611117C0F894EC912095B7
:100180002E232C938FBF0895323019F480B78F7DC2
:10019000E9CF333021F48FB58F778FBDE4CF343082
:1001A00011F78FB58F7DF9CFF894EC912E2BE9CF15
:1001B000CF93DF9387FF07C0E82FEF778AE08E1B8E
:1001C000E83008F08FEF90E0FC01E65CFF4F2491EF
:1001D000825D9F4FFC0184918823D1F090E0880FCD
:1001E000991FFC01EE5DFF4FA591B491FC01E85D04
:1001F000FF4FC591D49161110EC09FB7F8948C91B7
:10020000E22FE0958E238C932881E223E8839FBF21
:10021000DF91CF9108958FB7F894EC91E22BEC9396
:100220008FBFF6CF8F7387B9369A3699FECF84B1D8
:1002300095B108953FB7F8948091DB009091DC0070
:10024000A091DD00B091DE0022B708B600FE05C027
:100250002F3F19F00196A11DB11D3FBFBA2FA92F45
:10026000982F8827BC01CD01620F711D811D911D42
:1002700043E0660F771F881F991F4A95D1F70895AD
:100280008091AA00882319F090916000911109CF04
:100290000895CF93DF93EC018A81C4DF9C838B8325
:1002A0008639910580F0843F914080F081E090E0B4
:1002B0003D8121E03817190609F420E02E838D8353
:1002C000DF91CF91089583E090E0F2CF82E090E05B
:1002D000EFCF0F931F93CF93DF93EC018BB39981F3
:1002E00001E010E0980101C0220F9A95EAF7822BF5
:1002F0008BBB8A8197DF9C018BB3998101C0000F72
:100300009A95EAF7009508230BBB90E02337310557
:1003100050F091E02A3A310530F093E0203283E04A
:10032000380708F492E09D83923030F483E08883AC
:100330003C832B8380E009C0888187FD02C0815007
:10034000888381E098819111F5CFDF91CF911F9142
:100350000F910895CF93FC01680F791F80E03CEB6B
:1003600041E652ECADE9B3E2C6E42CE86E177F0734
:10037000A9F0919198278EE590FF80E091FD832769
:1003800092FD842793FD852794FD8A2795FD8B2771
:1003900096FD8C2797FFEACF8227E8CFCF9108956B
:1003A0009091EA0020911101809112012F5F821B30
:1003B0008F70A1F0809111018F5F8F7020911201D9
:1003C0008217E1F3E82FF0E0E856FF4FA92FB0E0E5
:1003D000A551BF4F2C91208380931101953218F4C1
:1003E0009F5F9093EA000895CF93DF938091A900D7
:1003F0008823F9F09091A800891335C0CFEFDFEF83
:1004000046E250E06AEA70E08BEE90E0D3D61092BC
:10041000EA00DD27CC34D10509F45BC07CF5C1349A
:10042000D10509F452C0C234D105B1F1DF91CF91A9
:1004300008959091140180911301891B8F70F1F23E
:1004400090911401809113019817E1F3E091140148
:10045000EF5FEF70E0931401F0E0E857FF4F808109
:10046000C82FD0E0CDCFE92FF0E0E857FF4F8081D3
:10047000C82FD0E09F5F9093A800C2CFC435D105AC
:1004800001F1CA35D105C9F0CD34D10579F6809195
:1004900087008093EB00CACF64E270E081E690E0D1
:1004A00059DF8093850086E2E1E6F0E0ABEEB0E054
:1004B00001900D928A95E1F7B9CF81E080931A01FE
:1004C000B5CF82E080938700B1CF81E08093600058
:1004D000ADCF8091CF009091D0009093EE008093AB
:1004E000ED008091C8009091C9009093F000809336
:1004F000EF008091D1008093EB008091CA0080933F
:10050000EC0066E070E08BEE90E024DF8093F10079
:100510008DCF8093870010921401109213011092D6
:100520001201109211018AE08093190110921801B2
:10053000109217011092160110921501DC9ADE9AA2
:10054000D49AD69888EA8DB980EF8EB984EF91E07D
:10055000909316018093150180ED91E0909318011E
:100560008093170110921A0146E250E06AEA70E0A7
:100570008BEE90E01FD61092EA000895CF93DF93A0
:10058000EC0160916700B3D561E070E08091CA0032
:10059000811102C070E060E0CB01880F991F61E01B
:1005A0002091D100211101C060E0682BCE0101969D
:1005B000DF91CF919CC59F92AF92BF92CF92DF9275
:1005C000EF92FF920F931F93CF93DF936091E5001B
:1005D000E62EF12C8091E6008150990B6F5FE816B2
:1005E000F9060CF060E06093E5008091E70070E0B0
:1005F00090E08BD50091E400080F192F111D81E7C1
:10060000C82E80E0D82EC1E6D0E0015610409C8470
:100610005801AC0EBD1EC50162D5981619F0692DA2
:10062000C50165D52196CC16DD0689F76091E700F6
:1006300070E08DE690E08EDE682F811101C061E0F0
:100640002091E5008091E8009091E900820F911DD2
:100650004ED58091E8009091E90060E08E0D9F1DDD
:10066000DF91CF911F910F91FF90EF90DF90CF908E
:10067000BF90AF909F903BC54F925F926F927F92D9
:100680008F929F92AF92BF92CF92DF92EF92FF92A2
:100690000F931F93CF93DF93CDB7DEB760970FB65D
:1006A000F894DEBF0FBECDBF3B01A090E7000091E4
:1006B000E400C82ED12CB12CC601B50126D5080FF7
:1006C000192F111DCE0101967C012E0191E1490ED9
:1006D000511C47010E191F09C801880D991DFFD42F
:1006E000F40181934F01E415F505B1F7B501C70198
:1006F00031DE182F8091E8009091E9008C0D9D1D4E
:10070000EED4181721F0813009F511111FC080E1D6
:10071000F701D30101900D928A95E1F781E060968F
:100720000FB6F894DEBF0FBECDBFDF91CF911F9102
:100730000F91FF90EF90DF90CF90BF90AF909F9080
:100740008F907F906F905F904F90089580E0E7CFFB
:10075000CF93C82F0098379A8EEB90E0BADD8823AC
:1007600001F180916D0090916E00A0916F00B091A9
:1007700070000196A11DB11D80936D0090936E00D5
:10078000A0936F00B09370008091C30080936900C4
:100790008091C1009091C20090937E0080937D0073
:1007A0000ADF88EB90E095DD882301F180917100EC
:1007B00090917200A0917300B09174000196A11DF8
:1007C000B11D8093710090937200A0937300B09359
:1007D00074008091BD0080936A008091BB0090916D
:1007E000BC009093800080937F00E5DE82EB90E078
:1007F00070DD882301F18091750090917600A091C1
:100800007700B09178000196A11DB11D809375000D
:1008100090937600A0937700B09378008091B70012
:1008200080936B008091B5009091B6009093820008
:1008300080938100C0DE8CEA90E04BDD882301F1DB
:100840008091790090917A00A0917B00B0917C001A
:100850000196A11DB11D8093790090937A00A09319
:100860007B00B0937C008091B10080936C008091FC
:10087000AF009091B00090938400809383009BDE42
:100880008091D8009091D9008F719927892B09F018
:1008900057C027B33091AB0081E090E0AC0101C0BC
:1008A000440F3A95EAF7242B27BB28B33091AB00CD
:1008B00001C0880F3A95EAF7822B88BBC11144C06A
:1008C0008091D100811140C08091CA00811142C045
:1008D00027B33091AB0081E090E0AC0101C0440F40
:1008E0003A95EAF7242B27BB48B32091AB00BC0113
:1008F00002C0660F771F2A95E2F79B0120952423FB
:1009000028BB27B33091AB0001C0880F3A95EAF7B6
:100910008095822387BB8091D100882321F080912C
:10092000D200811108C08091CA008823B9F080915B
:10093000CB00882399F081E08093AA001092600098
:100940003798009ACF9108958CEC90E0A2DCCC23EC
:1009500009F4BACF85EC90E09CDCBACF1092AA00E3
:10096000EFCF1F920F920FB60F9211242F933F9348
:100970008F939F93AF93BF938091DF009091E0009E
:10098000A091E100B091E2003091DA0026E0230F5F
:100990002D3768F129E8230F0396A11DB11D20937F
:1009A000DA008093DF009093E000A093E100B09321
:1009B000E2008091DB009091DC00A091DD00B0911D
:1009C000DE000196A11DB11D8093DB009093DC0039
:1009D000A093DD00B093DE00BF91AF919F918F9106
:1009E0003F912F910F900FBE0F901F901895029678
:1009F000A11DB11DD4CF1F920F920FB60F921124DB
:100A00002F933F934F935F936F937F938F939F9316
:100A1000AF93BF93CF93EF93FF938091C400823045
:100A200009F474C0B8F4882389F1813009F454C002
:100A3000FF91EF91CF91BF91AF919F918F917F9156
:100A40006F915F914F913F912F910F900FBE0F903B
:100A50001F901895843009F45FC0B8F1853041F7D4
:100A600084E08093C4009FB1809113018F5F8F70E9
:100A700020911401281709F473C080931301E091A9
:100A80001301F0E0E857FF4F908319C08FB188231E
:100A900031F08FB1869590911901891319C0789B17
:100AA00012C0E0911701F0911801309729F0809160
:100AB000110180931201099581E08093C4001FB851
:100AC000D69A8EE721C084E0F8CF8FB1882321F039
:100AD000D69888EA8DB917C08091120190911101C2
:100AE0009817B1F3809112018F5F8F70809312017C
:100AF000E0911201F0E0E856FF4F80818FB982E06B
:100B00008093C400D69A80E78EB992CF83E0809319
:100B1000C400D6981FB8D5CF85E08093C400D6987E
:100B200080E78EB9E0911501F0911601309709F434
:100B30007FCFC0911301809114018C1709F478CFF5
:100B40008EB18E7AE9F3759B73CF909114018091E9
:100B50001301891B8F7090E00995C093140168CF31
:100B6000D698AFCF1F920F920FB60F9211242F93EA
:100B70003F934F935F936F937F938F939F93AF9325
:100B8000BF93CF93EF93FF93E0911501F09116017E
:100B9000309781F0C0911301809114018C1751F0AE
:100BA0009091140180911301891B8F7090E0099539
:100BB000C09314011092C400D698CC9B18C0CE9B51
:100BC000FCCF88EA8DB980EF8EB9FF91EF91CF917C
:100BD000BF91AF919F918F917F916F915F914F9155
:100BE0003F912F910F900FBE0F901F90189588EF97
:100BF000E9CF1F920F920FB60F9211248F939F93FC
:100C00008091D8009091D90001979093D90080935A
:100C1000D8009F918F910F900FBE0F901F90189545
:100C2000CF92DF92EF92FF920F931F93CF93DF93B8
:100C3000CDB7DEB760970FB6F894DEBF0FBECDBF5D
:100C40008C01FC011082118284E1828380E1838324
:100C500080E491E095838483F12CE12CD12CC12C8C
:100C6000F80182818E151F0441F13CF18481958148
:100C70008E0D9F1D34D2C80ED11CC114D10421F495
:100C8000FFEFEF1AFF0AECCFF801E182BE016F5FC0
:100C90007F4F8091E500F0DC882391F360960FB6DA
:100CA000F894DEBF0FBECDBFDF91CF911F910F91A2
:100CB000FF90EF90DF90CF9008951092E5000091A3
:100CC000E40010E08091E6002091E8003091E90016
:100CD000820F932F911D0817190700F760E0C801D4
:100CE00006D20F5F1F4FEECF81B781BF80B7826002
:100CF00080BF80B7816080BF83B7887F826083BFF9
:100D0000789489B7816089BF8EB5887F8EBD8FB595
:100D100081608FBD8FB58D7F8FBD8EB5877F8EBD76
:100D20008EB58F7E8EBD8EB582608EBD86B1887782
:100D3000836886B9379A84B780936200F894479A9B
:100D4000789414BE88E181BD84E481BDA8956DE6E8
:100D500070E08091E50090DCC091E6002091E80011
:100D60003091E900882309F46EC0C20FD32FD11D42
:100D7000CE01B5D1182F80936700CE010196AFD177
:100D800090E080FD92E09093D10081FD5AC080E018
:100D90008093CA001F5F10936700CE01EFDB412CE8
:100DA00030E3532E31E1632E712C44E7242E4FE3C0
:100DB000342E0EEC10E380B18F6080B985B7877E4A
:100DC000806185BF14BE28E121BD84E481BDA89562
:100DD000C0EFD0E055DA811114C080EA95E090931D
:100DE000D9008093D8008091D8009091D90018162E
:100DF00019062CF4F89444DA882349F17894219761
:100E000049F70FB6F894A89581B5886181BD11BCEA
:100E10000FBE80B1807F80B96DE670E08091E50003
:100E20002BDC5CD9693B7B4081059105D8F482E0DD
:100E300070DB90EC892E94ED992EAA24A394B12C0A
:100E40001AC082E0A5CFC9018C0F911DA7CF80E009
:100E50007FDC789485B7806285BF889585B78F7D64
:100E600085BFC1CF81E055DB20EC822E27E2922E98
:100E700029E0A22EB12C61E08091D30099D960E0E5
:100E80008091D30051D92FB7F8948091DF009091D1
:100E9000E000A091E100B091E2002FBF8093D40068
:100EA0009093D500A093D600B093D70080911A01FB
:100EB00081115DC02FB7F8948091DF009091E00020
:100EC000A091E100B091E2002FBF4091D400509179
:100ED000D5006091D6007091D700841B950BA60BAE
:100EE000B70B88169906AA06BB0608F440C00098FE
:100EF000379A81E287B99ED9EB0182E0C82ED12CC6
:100F0000E12CF12C97D96C1B7D0B683E734008F4E3
:100F100074C0C114D104E104F10409F066C0369A2A
:100F20003699FECF24B185B13798009A382F50E01A
:100F300040E0C301B201FAD0442755272093630053
:100F400030936400409365005093660081E0909177
:100F50008700913009F080E0FBDBC1010197F1F7D8
:100F6000BDD8693B7B408105910508F49FCFC8013E
:100F70000197F1F761E08091D300D6D860E08091CD
:100F8000D30016D91092D4001092D5001092D6003A
:100F90001092D700D498D6981DB880EF8EB98AB336
:100FA0008F7A8ABB8BB38F7A8BBB80911A0188238F
:100FB00009F401CF80918700813009F0FCCE809147
:100FC000D100813011F41092D1008091CA0081309B
:100FD00011F41092CA002091E6008091E8009091EF
:100FE000E900820F911DCADAE6CE91E0C91AD10854
:100FF000E108F108C851DC4F85CFC114D104E104E8
:10100000F10409F07FCF8BCFEEEBF0E08FEF808320
:1010100011821282148213821582D098E8EBF0E0DC
:10102000808391E091839283148213821582D198F8
:10103000E2EBF0E0808322E021832283148213829A
:101040001582D298ECEAF0E0808333E0318332837A
:10105000148213821582D3982093AB00BA98ECECDB
:10106000F0E0808325E0218322831482138215829D
:101070001682D598E5ECF0E0808387E08183828357
:101080001482138215821682D7989093E300B99840
:1010900048B38091E30021E030E0B90102C0660F5F
:1010A000771F8A95E2F7CB018095842388BB88B3AC
:1010B0009091E30001C0220F9A95EAF7282B28BBF4
:1010C000E3EDF0E01082118212821382148260E05C
:1010D00080E06ED840E064E184EE90E0A1CDE1993B
:1010E000FECF9FBB8EBBE09A99278DB30895262F24
:1010F000E199FECF1CBA9FBB8EBB2DBB0FB6F894F7
:10110000E29AE19A0FBE019608950024552704C083
:10111000080E591F880F991F009729F0769567953B
:10112000B8F37105B9F7802D952F0895052E97FB1B
:1011300016F400940FD057FD05D014D007FC02D050
:1011400046F408C050954095309521953F4F4F4F3C
:101150005F4F089590958095709561957F4F8F4F63
:101160009F4F0895A1E21A2EAA1BBB1BFD010DC0C3
:10117000AA1FBB1FEE1FFF1FA217B307E407F50747
:1011800020F0A21BB30BE40BF50B661F771F881F23
:10119000991F1A9469F760957095809590959B01B9
:1011A000AC01BD01CF010895EE0FFF1F0590F49132
:1011B000E02D0994DC0101C06D9341505040E0F7EF
:0611C0000895F894FFCF32
:1011C600010E000000000000010000000000000009
:1011D6000000000000000000000000000000000009
:0811E6000000000000000002FF
:00000001FF
